{
  "_format": "hh-sol-artifact-1",
  "contractName": "VeloraRegistry",
  "sourceName": "contracts/VeloraRegistry.sol",
  "abi": [
    {
      "inputs": [
        {
          "internalType": "address",
          "name": "_proofVault",
          "type": "address"
        }
      ],
      "stateMutability": "nonpayable",
      "type": "constructor"
    },
    {
      "anonymous": false,
      "inputs": [
        {
          "indexed": false,
          "internalType": "address",
          "name": "engine",
          "type": "address"
        },
        {
          "indexed": false,
          "internalType": "bool",
          "name": "status",
          "type": "bool"
        }
      ],
      "name": "EngineStatusUpdated",
      "type": "event"
    },
    {
      "anonymous": false,
      "inputs": [
        {
          "indexed": true,
          "internalType": "address",
          "name": "user",
          "type": "address"
        },
        {
          "indexed": false,
          "internalType": "uint256",
          "name": "score",
          "type": "uint256"
        },
        {
          "indexed": false,
          "internalType": "enum VeloraRegistry.RiskTier",
          "name": "tier",
          "type": "uint8"
        }
      ],
      "name": "ReputationUpdated",
      "type": "event"
    },
    {
      "inputs": [
        {
          "internalType": "address",
          "name": "",
          "type": "address"
        }
      ],
      "name": "authorizedEngines",
      "outputs": [
        {
          "internalType": "bool",
          "name": "",
          "type": "bool"
        }
      ],
      "stateMutability": "view",
      "type": "function"
    },
    {
      "inputs": [
        {
          "internalType": "address",
          "name": "_user",
          "type": "address"
        }
      ],
      "name": "getReputation",
      "outputs": [
        {
          "internalType": "uint256",
          "name": "trustScore",
          "type": "uint256"
        },
        {
          "internalType": "enum VeloraRegistry.RiskTier",
          "name": "riskTier",
          "type": "uint8"
        },
        {
          "internalType": "uint256",
          "name": "lastUpdated",
          "type": "uint256"
        }
      ],
      "stateMutability": "view",
      "type": "function"
    },
    {
      "inputs": [],
      "name": "owner",
      "outputs": [
        {
          "internalType": "address",
          "name": "",
          "type": "address"
        }
      ],
      "stateMutability": "view",
      "type": "function"
    },
    {
      "inputs": [],
      "name": "proofVault",
      "outputs": [
        {
          "internalType": "contract ProofVault",
          "name": "",
          "type": "address"
        }
      ],
      "stateMutability": "view",
      "type": "function"
    },
    {
      "inputs": [
        {
          "internalType": "address",
          "name": "",
          "type": "address"
        }
      ],
      "name": "registry",
      "outputs": [
        {
          "internalType": "uint256",
          "name": "trustScore",
          "type": "uint256"
        },
        {
          "internalType": "enum VeloraRegistry.RiskTier",
          "name": "riskTier",
          "type": "uint8"
        },
        {
          "internalType": "uint256",
          "name": "lastUpdated",
          "type": "uint256"
        },
        {
          "internalType": "bool",
          "name": "isActive",
          "type": "bool"
        }
      ],
      "stateMutability": "view",
      "type": "function"
    },
    {
      "inputs": [
        {
          "internalType": "address",
          "name": "_engine",
          "type": "address"
        },
        {
          "internalType": "bool",
          "name": "_status",
          "type": "bool"
        }
      ],
      "name": "setEngineStatus",
      "outputs": [],
      "stateMutability": "nonpayable",
      "type": "function"
    },
    {
      "inputs": [
        {
          "internalType": "address",
          "name": "_user",
          "type": "address"
        },
        {
          "internalType": "uint256",
          "name": "_trustScore",
          "type": "uint256"
        },
        {
          "internalType": "enum VeloraRegistry.RiskTier",
          "name": "_tier",
          "type": "uint8"
        }
      ],
      "name": "updateReputation",
      "outputs": [],
      "stateMutability": "nonpayable",
      "type": "function"
    }
  ],
  "bytecode": "0x608060405234801561001057600080fd5b5060405161069438038061069483398101604081905261002f91610062565b60008054336001600160a01b031991821617909155600180549091166001600160a01b0392909216919091179055610092565b60006020828403121561007457600080fd5b81516001600160a01b038116811461008b57600080fd5b9392505050565b6105f3806100a16000396000f3fe608060405234801561001057600080fd5b506004361061007d5760003560e01c80638da5cb5b1161005b5780638da5cb5b146101005780639c89a0e21461012b578063b11c19dc1461014d578063b1bf884a1461016057600080fd5b8063038defd71461008257806328e6a45c146100d8578063694fd415146100ed575b600080fd5b6100bf610090366004610482565b60026020819052600091825260409091208054600182015492820154600390920154909260ff90811692911684565b6040516100cf94939291906104dc565b60405180910390f35b6100eb6100e6366004610507565b610193565b005b6100eb6100fb36600461054b565b610338565b600054610113906001600160a01b031681565b6040516001600160a01b0390911681526020016100cf565b61013e610139366004610482565b6103e2565b6040516100cf93929190610587565b600154610113906001600160a01b031681565b61018361016e366004610482565b60036020526000908152604090205460ff1681565b60405190151581526020016100cf565b6000546001600160a01b03163314806101bb57503360009081526003602052604090205460ff165b6102045760405162461bcd60e51b81526020600482015260156024820152744e6f7420617574686f72697a656420656e67696e6560581b60448201526064015b60405180910390fd5b606482111561024b5760405162461bcd60e51b815260206004820152601360248201527253636f7265206f7574206f6620626f756e647360681b60448201526064016101fb565b604051806080016040528083815260200182600281111561026e5761026e6104a4565b815242602080830191909152600160409283018190526001600160a01b038716600090815260028084529390208451815591840151828201805493949193909260ff199091169184908111156102c6576102c66104a4565b021790555060408281015160028301556060909201516003909101805460ff1916911515919091179055516001600160a01b038416907fe49cf8896948048b69e1531d3f28ce172d4464f874cedc6c5e3b002d1cc2f20b9061032b90859085906105a9565b60405180910390a2505050565b6000546001600160a01b0316331461037f5760405162461bcd60e51b815260206004820152600a60248201526927b7363c9037bbb732b960b11b60448201526064016101fb565b6001600160a01b038216600081815260036020908152604091829020805460ff19168515159081179091558251938452908301527fe2f7b1b27c2ad3f639dbd0058dae02a213ec0b7220c9903c73170545570d8b2e910160405180910390a15050565b6001600160a01b038116600090815260026020526040812060038101548291829160ff166104495760405162461bcd60e51b815260206004820152601460248201527355736572206e6f7420696e20726567697374727960601b60448201526064016101fb565b80546001820154600290920154909660ff90921695509350915050565b80356001600160a01b038116811461047d57600080fd5b919050565b60006020828403121561049457600080fd5b61049d82610466565b9392505050565b634e487b7160e01b600052602160045260246000fd5b600381106104d857634e487b7160e01b600052602160045260246000fd5b9052565b848152608081016104f060208301866104ba565b836040830152821515606083015295945050505050565b60008060006060848603121561051c57600080fd5b61052584610466565b92506020840135915060408401356003811061054057600080fd5b809150509250925092565b6000806040838503121561055e57600080fd5b61056783610466565b91506020830135801515811461057c57600080fd5b809150509250929050565b8381526060810161059b60208301856104ba565b826040830152949350505050565b8281526040810161049d60208301846104ba56fea264697066735822122052fa99cd734f8ea1ede939022ec1f5e286c04e7ed6d034a6cd8a22f9d12e20bb64736f6c63430008140033",
  "linkReferences": {},
  "deployedLinkReferences": {}
}