{"contracts/ProofVault.sol":{"ProofVault":{"abi":[{"inputs":[],"stateMutability":"nonpayable","type":"constructor"},{"anonymous":false,"inputs":[{"indexed":true,"internalType":"address","name":"user","type":"address"},{"indexed":false,"internalType":"string","name":"proofType","type":"string"},{"indexed":false,"internalType":"bytes32","name":"proofHash","type":"bytes32"}],"name":"ProofAdded","type":"event"},{"anonymous":false,"inputs":[{"indexed":false,"internalType":"address","name":"verifier","type":"address"},{"indexed":false,"internalType":"bool","name":"status","type":"bool"}],"name":"VerifierUpdated","type":"event"},{"inputs":[{"internalType":"address","name":"_user","type":"address"},{"internalType":"string","name":"_proofType","type":"string"},{"internalType":"bytes32","name":"_proofHash","type":"bytes32"}],"name":"addProof","outputs":[],"stateMutability":"nonpayable","type":"function"},{"inputs":[{"internalType":"address","name":"_user","type":"address"},{"internalType":"string","name":"_proofType","type":"string"}],"name":"getProof","outputs":[{"internalType":"bytes32","name":"hash","type":"bytes32"},{"internalType":"uint256","name":"time","type":"uint256"},{"internalType":"bool","name":"isVerified","type":"bool"}],"stateMutability":"view","type":"function"},{"inputs":[],"name":"owner","outputs":[{"internalType":"address","name":"","type":"address"}],"stateMutability":"view","type":"function"},{"inputs":[{"internalType":"address","name":"_verifier","type":"address"},{"internalType":"bool","name":"_status","type":"bool"}],"name":"setVerifier","outputs":[],"stateMutability":"nonpayable","type":"function"},{"inputs":[{"internalType":"address","name":"","type":"address"},{"internalType":"string","name":"","type":"string"}],"name":"userProofs","outputs":[{"internalType":"bytes32","name":"proofHash","type":"bytes32"},{"internalType":"string","name":"proofType","type":"string"},{"internalType":"uint256","name":"timestamp","type":"uint256"},{"internalType":"bool","name":"verified","type":"bool"}],"stateMutability":"view","type":"function"},{"inputs":[{"internalType":"address","name":"","type":"address"}],"name":"verifiers","outputs":[{"internalType":"bool","name":"","type":"bool"}],"stateMutability":"view","type":"function"}],"evm":{"bytecode":{"linkReferences":{},"object":"608060405234801561001057600080fd5b50600080546001600160a01b03191633179055610922806100326000396000f3fe608060405234801561001057600080fd5b50600436106100625760003560e01c8063030718c91461006757806343d9421a1461007c578063671b7121146100b15780636c824487146100d45780638da5cb5b14610107578063ac9b567114610132575b600080fd5b61007a610075366004610511565b610145565b005b61008f61008a36600461056b565b6102d3565b6040805193845260208401929092521515908201526060015b60405180910390f35b6100c46100bf3660046105d4565b610333565b6040516100a89493929190610696565b6100f76100e23660046106fc565b60026020526000908152604090205460ff1681565b60405190151581526020016100a8565b60005461011a906001600160a01b031681565b6040516001600160a01b0390911681526020016100a8565b61007a61014036600461071e565b610402565b6000546001600160a01b031633148061016d57503360009081526002602052604090205460ff165b6101be5760405162461bcd60e51b815260206004820152601760248201527f4e6f7420617574686f72697a656420766572696669657200000000000000000060448201526064015b60405180910390fd5b604051806080016040528082815260200184848080601f0160208091040260200160405190810160405280939291908181526020018383808284376000920182905250938552505042602080850191909152600160409485018190526001600160a01b038a168452905250819020905161023b908690869061075a565b908152604051602091819003820190208251815590820151600182019061026290826107f3565b5060408281015160028301556060909201516003909101805460ff1916911515919091179055516001600160a01b038516907f2ee65f8dcfead29917de31f548f64c9a884b4e28cffa78a3faac5157cd9658dd906102c5908690869086906108b3565b60405180910390a250505050565b6001600160a01b038316600090815260016020526040808220905182918291829190610302908890889061075a565b9081526040519081900360200190208054600282015460039092015490955090935060ff1691505093509350939050565b60016020818152600093845260409093208251808401850180519281529085019390940192909220919092528054918101805461036f9061076a565b80601f016020809104026020016040519081016040528092919081815260200182805461039b9061076a565b80156103e85780601f106103bd576101008083540402835291602001916103e8565b820191906000526020600020905b8154815290600101906020018083116103cb57829003601f168201915b50505050600283015460039093015491929160ff16905084565b6000546001600160a01b031633146104495760405162461bcd60e51b815260206004820152600a60248201526927b7363c9037bbb732b960b11b60448201526064016101b5565b6001600160a01b038216600081815260026020908152604091829020805460ff19168515159081179091558251938452908301527fba5f7031ad83095931ee4b5138591db2dc3cfc56178367622fa4b05c2efad231910160405180910390a15050565b80356001600160a01b03811681146104c357600080fd5b919050565b60008083601f8401126104da57600080fd5b50813567ffffffffffffffff8111156104f257600080fd5b60208301915083602082850101111561050a57600080fd5b9250929050565b6000806000806060858703121561052757600080fd5b610530856104ac565b9350602085013567ffffffffffffffff81111561054c57600080fd5b610558878288016104c8565b9598909750949560400135949350505050565b60008060006040848603121561058057600080fd5b610589846104ac565b9250602084013567ffffffffffffffff8111156105a557600080fd5b6105b1868287016104c8565b9497909650939450505050565b634e487b7160e01b600052604160045260246000fd5b600080604083850312156105e757600080fd5b6105f0836104ac565b9150602083013567ffffffffffffffff8082111561060d57600080fd5b818501915085601f83011261062157600080fd5b813581811115610633576106336105be565b604051601f8201601f19908116603f0116810190838211818310171561065b5761065b6105be565b8160405282815288602084870101111561067457600080fd5b8260208601602083013760006020848301015280955050505050509250929050565b84815260006020608081840152855180608085015260005b818110156106ca5787810183015185820160a0015282016106ae565b50600060a0828601015260a0601f19601f83011685010192505050836040830152821515606083015295945050505050565b60006020828403121561070e57600080fd5b610717826104ac565b9392505050565b6000806040838503121561073157600080fd5b61073a836104ac565b91506020830135801515811461074f57600080fd5b809150509250929050565b8183823760009101908152919050565b600181811c9082168061077e57607f821691505b60208210810361079e57634e487b7160e01b600052602260045260246000fd5b50919050565b601f8211156107ee57600081815260208120601f850160051c810160208610156107cb5750805b601f850160051c820191505b818110156107ea578281556001016107d7565b5050505b505050565b815167ffffffffffffffff81111561080d5761080d6105be565b6108218161081b845461076a565b846107a4565b602080601f831160018114610856576000841561083e5750858301515b600019600386901b1c1916600185901b1785556107ea565b600085815260208120601f198616915b8281101561088557888601518255948401946001909101908401610866565b50858210156108a35787850151600019600388901b60f8161c191681555b5050505050600190811b01905550565b604081528260408201528284606083013760006060848301015260006060601f19601f860116830101905082602083015294935050505056fea2646970667358221220e1b4d86229810c9855b6be487cc1b95cca918aaf650879b5f1afee263050a3a864736f6c63430008140033","opcodes":"PUSH1 0x80 PUSH1 0x40 MSTORE CALLVALUE DUP1 ISZERO PUSH2 0x10 JUMPI PUSH1 0x0 DUP1 REVERT JUMPDEST POP PUSH1 0x0 DUP1 SLOAD PUSH1 0x1 PUSH1 0x1 PUSH1 0xA0 SHL SUB NOT AND CALLER OR SWAP1 SSTORE PUSH2 0x922 DUP1 PUSH2 0x32 PUSH1 0x0 CODECOPY PUSH1 0x0 RETURN INVALID PUSH1 0x80 PUSH1 0x40 MSTORE CALLVALUE DUP1 ISZERO PUSH2 0x10 JUMPI PUSH1 0x0 DUP1 REVERT JUMPDEST POP PUSH1 0x4 CALLDATASIZE LT PUSH2 0x62 JUMPI PUSH1 0x0 CALLDATALOAD PUSH1 0xE0 SHR DUP1 PUSH4 0x30718C9 EQ PUSH2 0x67 JUMPI DUP1 PUSH4 0x43D9421A EQ PUSH2 0x7C JUMPI DUP1 PUSH4 0x671B7121 EQ PUSH2 0xB1 JUMPI DUP1 PUSH4 0x6C824487 EQ PUSH2 0xD4 JUMPI DUP1 PUSH4 0x8DA5CB5B EQ PUSH2 0x107 JUMPI DUP1 PUSH4 0xAC9B5671 EQ PUSH2 0x132 JUMPI JUMPDEST PUSH1 0x0 DUP1 REVERT JUMPDEST PUSH2 0x7A PUSH2 0x75 CALLDATASIZE PUSH1 0x4 PUSH2 0x511 JUMP JUMPDEST PUSH2 0x145 JUMP JUMPDEST STOP JUMPDEST PUSH2 0x8F PUSH2 0x8A CALLDATASIZE PUSH1 0x4 PUSH2 0x56B JUMP JUMPDEST PUSH2 0x2D3 JUMP JUMPDEST PUSH1 0x40 DUP1 MLOAD SWAP4 DUP5 MSTORE PUSH1 0x20 DUP5 ADD SWAP3 SWAP1 SWAP3 MSTORE ISZERO ISZERO SWAP1 DUP3 ADD MSTORE PUSH1 0x60 ADD JUMPDEST PUSH1 0x40 MLOAD DUP1 SWAP2 SUB SWAP1 RETURN JUMPDEST PUSH2 0xC4 PUSH2 0xBF CALLDATASIZE PUSH1 0x4 PUSH2 0x5D4 JUMP JUMPDEST PUSH2 0x333 JUMP JUMPDEST PUSH1 0x40 MLOAD PUSH2 0xA8 SWAP5 SWAP4 SWAP3 SWAP2 SWAP1 PUSH2 0x696 JUMP JUMPDEST PUSH2 0xF7 PUSH2 0xE2 CALLDATASIZE PUSH1 0x4 PUSH2 0x6FC JUMP JUMPDEST PUSH1 0x2 PUSH1 0x20 MSTORE PUSH1 0x0 SWAP1 DUP2 MSTORE PUSH1 0x40 SWAP1 KECCAK256 SLOAD PUSH1 0xFF AND DUP2 JUMP JUMPDEST PUSH1 0x40 MLOAD SWAP1 ISZERO ISZERO DUP2 MSTORE PUSH1 0x20 ADD PUSH2 0xA8 JUMP JUMPDEST PUSH1 0x0 SLOAD PUSH2 0x11A SWAP1 PUSH1 0x1 PUSH1 0x1 PUSH1 0xA0 SHL SUB AND DUP2 JUMP JUMPDEST PUSH1 0x40 MLOAD PUSH1 0x1 PUSH1 0x1 PUSH1 0xA0 SHL SUB SWAP1 SWAP2 AND DUP2 MSTORE PUSH1 0x20 ADD PUSH2 0xA8 JUMP JUMPDEST PUSH2 0x7A PUSH2 0x140 CALLDATASIZE PUSH1 0x4 PUSH2 0x71E JUMP JUMPDEST PUSH2 0x402 JUMP JUMPDEST PUSH1 0x0 SLOAD PUSH1 0x1 PUSH1 0x1 PUSH1 0xA0 SHL SUB AND CALLER EQ DUP1 PUSH2 0x16D JUMPI POP CALLER PUSH1 0x0 SWAP1 DUP2 MSTORE PUSH1 0x2 PUSH1 0x20 MSTORE PUSH1 0x40 SWAP1 KECCAK256 SLOAD PUSH1 0xFF AND JUMPDEST PUSH2 0x1BE JUMPI PUSH1 0x40 MLOAD PUSH3 0x461BCD PUSH1 0xE5 SHL DUP2 MSTORE PUSH1 0x20 PUSH1 0x4 DUP3 ADD MSTORE PUSH1 0x17 PUSH1 0x24 DUP3 ADD MSTORE PUSH32 0x4E6F7420617574686F72697A6564207665726966696572000000000000000000 PUSH1 0x44 DUP3 ADD MSTORE PUSH1 0x64 ADD JUMPDEST PUSH1 0x40 MLOAD DUP1 SWAP2 SUB SWAP1 REVERT JUMPDEST PUSH1 0x40 MLOAD DUP1 PUSH1 0x80 ADD PUSH1 0x40 MSTORE DUP1 DUP3 DUP2 MSTORE PUSH1 0x20 ADD DUP5 DUP5 DUP1 DUP1 PUSH1 0x1F ADD PUSH1 0x20 DUP1 SWAP2 DIV MUL PUSH1 0x20 ADD PUSH1 0x40 MLOAD SWAP1 DUP2 ADD PUSH1 0x40 MSTORE DUP1 SWAP4 SWAP3 SWAP2 SWAP1 DUP2 DUP2 MSTORE PUSH1 0x20 ADD DUP4 DUP4 DUP1 DUP3 DUP5 CALLDATACOPY PUSH1 0x0 SWAP3 ADD DUP3 SWAP1 MSTORE POP SWAP4 DUP6 MSTORE POP POP TIMESTAMP PUSH1 0x20 DUP1 DUP6 ADD SWAP2 SWAP1 SWAP2 MSTORE PUSH1 0x1 PUSH1 0x40 SWAP5 DUP6 ADD DUP2 SWAP1 MSTORE PUSH1 0x1 PUSH1 0x1 PUSH1 0xA0 SHL SUB DUP11 AND DUP5 MSTORE SWAP1 MSTORE POP DUP2 SWAP1 KECCAK256 SWAP1 MLOAD PUSH2 0x23B SWAP1 DUP7 SWAP1 DUP7 SWAP1 PUSH2 0x75A JUMP JUMPDEST SWAP1 DUP2 MSTORE PUSH1 0x40 MLOAD PUSH1 0x20 SWAP2 DUP2 SWAP1 SUB DUP3 ADD SWAP1 KECCAK256 DUP3 MLOAD DUP2 SSTORE SWAP1 DUP3 ADD MLOAD PUSH1 0x1 DUP3 ADD SWAP1 PUSH2 0x262 SWAP1 DUP3 PUSH2 0x7F3 JUMP JUMPDEST POP PUSH1 0x40 DUP3 DUP2 ADD MLOAD PUSH1 0x2 DUP4 ADD SSTORE PUSH1 0x60 SWAP1 SWAP3 ADD MLOAD PUSH1 0x3 SWAP1 SWAP2 ADD DUP1 SLOAD PUSH1 0xFF NOT AND SWAP2 ISZERO ISZERO SWAP2 SWAP1 SWAP2 OR SWAP1 SSTORE MLOAD PUSH1 0x1 PUSH1 0x1 PUSH1 0xA0 SHL SUB DUP6 AND SWAP1 PUSH32 0x2EE65F8DCFEAD29917DE31F548F64C9A884B4E28CFFA78A3FAAC5157CD9658DD SWAP1 PUSH2 0x2C5 SWAP1 DUP7 SWAP1 DUP7 SWAP1 DUP7 SWAP1 PUSH2 0x8B3 JUMP JUMPDEST PUSH1 0x40 MLOAD DUP1 SWAP2 SUB SWAP1 LOG2 POP POP POP POP JUMP JUMPDEST PUSH1 0x1 PUSH1 0x1 PUSH1 0xA0 SHL SUB DUP4 AND PUSH1 0x0 SWAP1 DUP2 MSTORE PUSH1 0x1 PUSH1 0x20 MSTORE PUSH1 0x40 DUP1 DUP3 KECCAK256 SWAP1 MLOAD DUP3 SWAP2 DUP3 SWAP2 DUP3 SWAP2 SWAP1 PUSH2 0x302 SWAP1 DUP9 SWAP1 DUP9 SWAP1 PUSH2 0x75A JUMP JUMPDEST SWAP1 DUP2 MSTORE PUSH1 0x40 MLOAD SWAP1 DUP2 SWAP1 SUB PUSH1 0x20 ADD SWAP1 KECCAK256 DUP1 SLOAD PUSH1 0x2 DUP3 ADD SLOAD PUSH1 0x3 SWAP1 SWAP3 ADD SLOAD SWAP1 SWAP6 POP SWAP1 SWAP4 POP PUSH1 0xFF AND SWAP2 POP POP SWAP4 POP SWAP4 POP SWAP4 SWAP1 POP JUMP JUMPDEST PUSH1 0x1 PUSH1 0x20 DUP2 DUP2 MSTORE PUSH1 0x0 SWAP4 DUP5 MSTORE PUSH1 0x40 SWAP1 SWAP4 KECCAK256 DUP3 MLOAD DUP1 DUP5 ADD DUP6 ADD DUP1 MLOAD SWAP3 DUP2 MSTORE SWAP1 DUP6 ADD SWAP4 SWAP1 SWAP5 ADD SWAP3 SWAP1 SWAP3 KECCAK256 SWAP2 SWAP1 SWAP3 MSTORE DUP1 SLOAD SWAP2 DUP2 ADD DUP1 SLOAD PUSH2 0x36F SWAP1 PUSH2 0x76A JUMP JUMPDEST DUP1 PUSH1 0x1F ADD PUSH1 0x20 DUP1 SWAP2 DIV MUL PUSH1 0x20 ADD PUSH1 0x40 MLOAD SWAP1 DUP2 ADD PUSH1 0x40 MSTORE DUP1 SWAP3 SWAP2 SWAP1 DUP2 DUP2 MSTORE PUSH1 0x20 ADD DUP3 DUP1 SLOAD PUSH2 0x39B SWAP1 PUSH2 0x76A JUMP JUMPDEST DUP1 ISZERO PUSH2 0x3E8 JUMPI DUP1 PUSH1 0x1F LT PUSH2 0x3BD JUMPI PUSH2 0x100 DUP1 DUP4 SLOAD DIV MUL DUP4 MSTORE SWAP2 PUSH1 0x20 ADD SWAP2 PUSH2 0x3E8 JUMP JUMPDEST DUP3 ADD SWAP2 SWAP1 PUSH1 0x0 MSTORE PUSH1 0x20 PUSH1 0x0 KECCAK256 SWAP1 JUMPDEST DUP2 SLOAD DUP2 MSTORE SWAP1 PUSH1 0x1 ADD SWAP1 PUSH1 0x20 ADD DUP1 DUP4 GT PUSH2 0x3CB JUMPI DUP3 SWAP1 SUB PUSH1 0x1F AND DUP3 ADD SWAP2 JUMPDEST POP POP POP POP PUSH1 0x2 DUP4 ADD SLOAD PUSH1 0x3 SWAP1 SWAP4 ADD SLOAD SWAP2 SWAP3 SWAP2 PUSH1 0xFF AND SWAP1 POP DUP5 JUMP JUMPDEST PUSH1 0x0 SLOAD PUSH1 0x1 PUSH1 0x1 PUSH1 0xA0 SHL SUB AND CALLER EQ PUSH2 0x449 JUMPI PUSH1 0x40 MLOAD PUSH3 0x461BCD PUSH1 0xE5 SHL DUP2 MSTORE PUSH1 0x20 PUSH1 0x4 DUP3 ADD MSTORE PUSH1 0xA PUSH1 0x24 DUP3 ADD MSTORE PUSH10 0x27B7363C9037BBB732B9 PUSH1 0xB1 SHL PUSH1 0x44 DUP3 ADD MSTORE PUSH1 0x64 ADD PUSH2 0x1B5 JUMP JUMPDEST PUSH1 0x1 PUSH1 0x1 PUSH1 0xA0 SHL SUB DUP3 AND PUSH1 0x0 DUP2 DUP2 MSTORE PUSH1 0x2 PUSH1 0x20 SWAP1 DUP2 MSTORE PUSH1 0x40 SWAP2 DUP3 SWAP1 KECCAK256 DUP1 SLOAD PUSH1 0xFF NOT AND DUP6 ISZERO ISZERO SWAP1 DUP2 OR SWAP1 SWAP2 SSTORE DUP3 MLOAD SWAP4 DUP5 MSTORE SWAP1 DUP4 ADD MSTORE PUSH32 0xBA5F7031AD83095931EE4B5138591DB2DC3CFC56178367622FA4B05C2EFAD231 SWAP2 ADD PUSH1 0x40 MLOAD DUP1 SWAP2 SUB SWAP1 LOG1 POP POP JUMP JUMPDEST DUP1 CALLDATALOAD PUSH1 0x1 PUSH1 0x1 PUSH1 0xA0 SHL SUB DUP2 AND DUP2 EQ PUSH2 0x4C3 JUMPI PUSH1 0x0 DUP1 REVERT JUMPDEST SWAP2 SWAP1 POP JUMP JUMPDEST PUSH1 0x0 DUP1 DUP4 PUSH1 0x1F DUP5 ADD SLT PUSH2 0x4DA JUMPI PUSH1 0x0 DUP1 REVERT JUMPDEST POP DUP2 CALLDATALOAD PUSH8 0xFFFFFFFFFFFFFFFF DUP2 GT ISZERO PUSH2 0x4F2 JUMPI PUSH1 0x0 DUP1 REVERT JUMPDEST PUSH1 0x20 DUP4 ADD SWAP2 POP DUP4 PUSH1 0x20 DUP3 DUP6 ADD ADD GT ISZERO PUSH2 0x50A JUMPI PUSH1 0x0 DUP1 REVERT JUMPDEST SWAP3 POP SWAP3 SWAP1 POP JUMP JUMPDEST PUSH1 0x0 DUP1 PUSH1 0x0 DUP1 PUSH1 0x60 DUP6 DUP8 SUB SLT ISZERO PUSH2 0x527 JUMPI PUSH1 0x0 DUP1 REVERT JUMPDEST PUSH2 0x530 DUP6 PUSH2 0x4AC JUMP JUMPDEST SWAP4 POP PUSH1 0x20 DUP6 ADD CALLDATALOAD PUSH8 0xFFFFFFFFFFFFFFFF DUP2 GT ISZERO PUSH2 0x54C JUMPI PUSH1 0x0 DUP1 REVERT JUMPDEST PUSH2 0x558 DUP8 DUP3 DUP9 ADD PUSH2 0x4C8 JUMP JUMPDEST SWAP6 SWAP9 SWAP1 SWAP8 POP SWAP5 SWAP6 PUSH1 0x40 ADD CALLDATALOAD SWAP5 SWAP4 POP POP POP POP JUMP JUMPDEST PUSH1 0x0 DUP1 PUSH1 0x0 PUSH1 0x40 DUP5 DUP7 SUB SLT ISZERO PUSH2 0x580 JUMPI PUSH1 0x0 DUP1 REVERT JUMPDEST PUSH2 0x589 DUP5 PUSH2 0x4AC JUMP JUMPDEST SWAP3 POP PUSH1 0x20 DUP5 ADD CALLDATALOAD PUSH8 0xFFFFFFFFFFFFFFFF DUP2 GT ISZERO PUSH2 0x5A5 JUMPI PUSH1 0x0 DUP1 REVERT JUMPDEST PUSH2 0x5B1 DUP7 DUP3 DUP8 ADD PUSH2 0x4C8 JUMP JUMPDEST SWAP5 SWAP8 SWAP1 SWAP7 POP SWAP4 SWAP5 POP POP POP POP JUMP JUMPDEST PUSH4 0x4E487B71 PUSH1 0xE0 SHL PUSH1 0x0 MSTORE PUSH1 0x41 PUSH1 0x4 MSTORE PUSH1 0x24 PUSH1 0x0 REVERT JUMPDEST PUSH1 0x0 DUP1 PUSH1 0x40 DUP4 DUP6 SUB SLT ISZERO PUSH2 0x5E7 JUMPI PUSH1 0x0 DUP1 REVERT JUMPDEST PUSH2 0x5F0 DUP4 PUSH2 0x4AC JUMP JUMPDEST SWAP2 POP PUSH1 0x20 DUP4 ADD CALLDATALOAD PUSH8 0xFFFFFFFFFFFFFFFF DUP1 DUP3 GT ISZERO PUSH2 0x60D JUMPI PUSH1 0x0 DUP1 REVERT JUMPDEST DUP2 DUP6 ADD SWAP2 POP DUP6 PUSH1 0x1F DUP4 ADD SLT PUSH2 0x621 JUMPI PUSH1 0x0 DUP1 REVERT JUMPDEST DUP2 CALLDATALOAD DUP2 DUP2 GT ISZERO PUSH2 0x633 JUMPI PUSH2 0x633 PUSH2 0x5BE JUMP JUMPDEST PUSH1 0x40 MLOAD PUSH1 0x1F DUP3 ADD PUSH1 0x1F NOT SWAP1 DUP2 AND PUSH1 0x3F ADD AND DUP2 ADD SWAP1 DUP4 DUP3 GT DUP2 DUP4 LT OR ISZERO PUSH2 0x65B JUMPI PUSH2 0x65B PUSH2 0x5BE JUMP JUMPDEST DUP2 PUSH1 0x40 MSTORE DUP3 DUP2 MSTORE DUP9 PUSH1 0x20 DUP5 DUP8 ADD ADD GT ISZERO PUSH2 0x674 JUMPI PUSH1 0x0 DUP1 REVERT JUMPDEST DUP3 PUSH1 0x20 DUP7 ADD PUSH1 0x20 DUP4 ADD CALLDATACOPY PUSH1 0x0 PUSH1 0x20 DUP5 DUP4 ADD ADD MSTORE DUP1 SWAP6 POP POP POP POP POP POP SWAP3 POP SWAP3 SWAP1 POP JUMP JUMPDEST DUP5 DUP2 MSTORE PUSH1 0x0 PUSH1 0x20 PUSH1 0x80 DUP2 DUP5 ADD MSTORE DUP6 MLOAD DUP1 PUSH1 0x80 DUP6 ADD MSTORE PUSH1 0x0 JUMPDEST DUP2 DUP2 LT ISZERO PUSH2 0x6CA JUMPI DUP8 DUP2 ADD DUP4 ADD MLOAD DUP6 DUP3 ADD PUSH1 0xA0 ADD MSTORE DUP3 ADD PUSH2 0x6AE JUMP JUMPDEST POP PUSH1 0x0 PUSH1 0xA0 DUP3 DUP7 ADD ADD MSTORE PUSH1 0xA0 PUSH1 0x1F NOT PUSH1 0x1F DUP4 ADD AND DUP6 ADD ADD SWAP3 POP POP POP DUP4 PUSH1 0x40 DUP4 ADD MSTORE DUP3 ISZERO ISZERO PUSH1 0x60 DUP4 ADD MSTORE SWAP6 SWAP5 POP POP POP POP POP JUMP JUMPDEST PUSH1 0x0 PUSH1 0x20 DUP3 DUP5 SUB SLT ISZERO PUSH2 0x70E JUMPI PUSH1 0x0 DUP1 REVERT JUMPDEST PUSH2 0x717 DUP3 PUSH2 0x4AC JUMP JUMPDEST SWAP4 SWAP3 POP POP POP JUMP JUMPDEST PUSH1 0x0 DUP1 PUSH1 0x40 DUP4 DUP6 SUB SLT ISZERO PUSH2 0x731 JUMPI PUSH1 0x0 DUP1 REVERT JUMPDEST PUSH2 0x73A DUP4 PUSH2 0x4AC JUMP JUMPDEST SWAP2 POP PUSH1 0x20 DUP4 ADD CALLDATALOAD DUP1 ISZERO ISZERO DUP2 EQ PUSH2 0x74F JUMPI PUSH1 0x0 DUP1 REVERT JUMPDEST DUP1 SWAP2 POP POP SWAP3 POP SWAP3 SWAP1 POP JUMP JUMPDEST DUP2 DUP4 DUP3 CALLDATACOPY PUSH1 0x0 SWAP2 ADD SWAP1 DUP2 MSTORE SWAP2 SWAP1 POP JUMP JUMPDEST PUSH1 0x1 DUP2 DUP2 SHR SWAP1 DUP3 AND DUP1 PUSH2 0x77E JUMPI PUSH1 0x7F DUP3 AND SWAP2 POP JUMPDEST PUSH1 0x20 DUP3 LT DUP2 SUB PUSH2 0x79E JUMPI PUSH4 0x4E487B71 PUSH1 0xE0 SHL PUSH1 0x0 MSTORE PUSH1 0x22 PUSH1 0x4 MSTORE PUSH1 0x24 PUSH1 0x0 REVERT JUMPDEST POP SWAP2 SWAP1 POP JUMP JUMPDEST PUSH1 0x1F DUP3 GT ISZERO PUSH2 0x7EE JUMPI PUSH1 0x0 DUP2 DUP2 MSTORE PUSH1 0x20 DUP2 KECCAK256 PUSH1 0x1F DUP6 ADD PUSH1 0x5 SHR DUP2 ADD PUSH1 0x20 DUP7 LT ISZERO PUSH2 0x7CB JUMPI POP DUP1 JUMPDEST PUSH1 0x1F DUP6 ADD PUSH1 0x5 SHR DUP3 ADD SWAP2 POP JUMPDEST DUP2 DUP2 LT ISZERO PUSH2 0x7EA JUMPI DUP3 DUP2 SSTORE PUSH1 0x1 ADD PUSH2 0x7D7 JUMP JUMPDEST POP POP POP JUMPDEST POP POP POP JUMP JUMPDEST DUP2 MLOAD PUSH8 0xFFFFFFFFFFFFFFFF DUP2 GT ISZERO PUSH2 0x80D JUMPI PUSH2 0x80D PUSH2 0x5BE JUMP JUMPDEST PUSH2 0x821 DUP2 PUSH2 0x81B DUP5 SLOAD PUSH2 0x76A JUMP JUMPDEST DUP5 PUSH2 0x7A4 JUMP JUMPDEST PUSH1 0x20 DUP1 PUSH1 0x1F DUP4 GT PUSH1 0x1 DUP2 EQ PUSH2 0x856 JUMPI PUSH1 0x0 DUP5 ISZERO PUSH2 0x83E JUMPI POP DUP6 DUP4 ADD MLOAD JUMPDEST PUSH1 0x0 NOT PUSH1 0x3 DUP7 SWAP1 SHL SHR NOT AND PUSH1 0x1 DUP6 SWAP1 SHL OR DUP6 SSTORE PUSH2 0x7EA JUMP JUMPDEST PUSH1 0x0 DUP6 DUP2 MSTORE PUSH1 0x20 DUP2 KECCAK256 PUSH1 0x1F NOT DUP7 AND SWAP2 JUMPDEST DUP3 DUP2 LT ISZERO PUSH2 0x885 JUMPI DUP9 DUP7 ADD MLOAD DUP3 SSTORE SWAP5 DUP5 ADD SWAP5 PUSH1 0x1 SWAP1 SWAP2 ADD SWAP1 DUP5 ADD PUSH2 0x866 JUMP JUMPDEST POP DUP6 DUP3 LT ISZERO PUSH2 0x8A3 JUMPI DUP8 DUP6 ADD MLOAD PUSH1 0x0 NOT PUSH1 0x3 DUP9 SWAP1 SHL PUSH1 0xF8 AND SHR NOT AND DUP2 SSTORE JUMPDEST POP POP POP POP POP PUSH1 0x1 SWAP1 DUP2 SHL ADD SWAP1 SSTORE POP JUMP JUMPDEST PUSH1 0x40 DUP2 MSTORE DUP3 PUSH1 0x40 DUP3 ADD MSTORE DUP3 DUP5 PUSH1 0x60 DUP4 ADD CALLDATACOPY PUSH1 0x0 PUSH1 0x60 DUP5 DUP4 ADD ADD MSTORE PUSH1 0x0 PUSH1 0x60 PUSH1 0x1F NOT PUSH1 0x1F DUP7 ADD AND DUP4 ADD ADD SWAP1 POP DUP3 PUSH1 0x20 DUP4 ADD MSTORE SWAP5 SWAP4 POP POP POP POP JUMP INVALID LOG2 PUSH5 0x6970667358 0x22 SLT KECCAK256 0xE1 0xB4 0xD8 PUSH3 0x29810C SWAP9 SSTORE 0xB6 0xBE BASEFEE PUSH29 0xC1B95CCA918AAF650879B5F1AFEE263050A3A864736F6C634300081400 CALLER "},"methodIdentifiers":{"addProof(address,string,bytes32)":"030718c9","getProof(address,string)":"43d9421a","owner()":"8da5cb5b","setVerifier(address,bool)":"ac9b5671","userProofs(address,string)":"671b7121","verifiers(address)":"6c824487"}}}}}