{
  "_format": "hh-sol-artifact-1",
  "contractName": "ProofVault",
  "sourceName": "contracts/ProofVault.sol",
  "abi": [
    {
      "inputs": [],
      "stateMutability": "nonpayable",
      "type": "constructor"
    },
    {
      "anonymous": false,
      "inputs": [
        {
          "indexed": true,
          "internalType": "address",
          "name": "user",
          "type": "address"
        },
        {
          "indexed": false,
          "internalType": "string",
          "name": "proofType",
          "type": "string"
        },
        {
          "indexed": false,
          "internalType": "bytes32",
          "name": "proofHash",
          "type": "bytes32"
        }
      ],
      "name": "ProofAdded",
      "type": "event"
    },
    {
      "anonymous": false,
      "inputs": [
        {
          "indexed": false,
          "internalType": "address",
          "name": "verifier",
          "type": "address"
        },
        {
          "indexed": false,
          "internalType": "bool",
          "name": "status",
          "type": "bool"
        }
      ],
      "name": "VerifierUpdated",
      "type": "event"
    },
    {
      "inputs": [
        {
          "internalType": "address",
          "name": "_user",
          "type": "address"
        },
        {
          "internalType": "string",
          "name": "_proofType",
          "type": "string"
        },
        {
          "internalType": "bytes32",
          "name": "_proofHash",
          "type": "bytes32"
        }
      ],
      "name": "addProof",
      "outputs": [],
      "stateMutability": "nonpayable",
      "type": "function"
    },
    {
      "inputs": [
        {
          "internalType": "address",
          "name": "_user",
          "type": "address"
        },
        {
          "internalType": "string",
          "name": "_proofType",
          "type": "string"
        }
      ],
      "name": "getProof",
      "outputs": [
        {
          "internalType": "bytes32",
          "name": "hash",
          "type": "bytes32"
        },
        {
          "internalType": "uint256",
          "name": "time",
          "type": "uint256"
        },
        {
          "internalType": "bool",
          "name": "isVerified",
          "type": "bool"
        }
      ],
      "stateMutability": "view",
      "type": "function"
    },
    {
      "inputs": [],
      "name": "owner",
      "outputs": [
        {
          "internalType": "address",
          "name": "",
          "type": "address"
        }
      ],
      "stateMutability": "view",
      "type": "function"
    },
    {
      "inputs": [
        {
          "internalType": "address",
          "name": "_verifier",
          "type": "address"
        },
        {
          "internalType": "bool",
          "name": "_status",
          "type": "bool"
        }
      ],
      "name": "setVerifier",
      "outputs": [],
      "stateMutability": "nonpayable",
      "type": "function"
    },
    {
      "inputs": [
        {
          "internalType": "address",
          "name": "",
          "type": "address"
        },
        {
          "internalType": "string",
          "name": "",
          "type": "string"
        }
      ],
      "name": "userProofs",
      "outputs": [
        {
          "internalType": "bytes32",
          "name": "proofHash",
          "type": "bytes32"
        },
        {
          "internalType": "string",
          "name": "proofType",
          "type": "string"
        },
        {
          "internalType": "uint256",
          "name": "timestamp",
          "type": "uint256"
        },
        {
          "internalType": "bool",
          "name": "verified",
          "type": "bool"
        }
      ],
      "stateMutability": "view",
      "type": "function"
    },
    {
      "inputs": [
        {
          "internalType": "address",
          "name": "",
          "type": "address"
        }
      ],
      "name": "verifiers",
      "outputs": [
        {
          "internalType": "bool",
          "name": "",
          "type": "bool"
        }
      ],
      "stateMutability": "view",
      "type": "function"
    }
  ],
  "bytecode": "0x608060405234801561001057600080fd5b50600080546001600160a01b03191633179055610922806100326000396000f3fe608060405234801561001057600080fd5b50600436106100625760003560e01c8063030718c91461006757806343d9421a1461007c578063671b7121146100b15780636c824487146100d45780638da5cb5b14610107578063ac9b567114610132575b600080fd5b61007a610075366004610511565b610145565b005b61008f61008a36600461056b565b6102d3565b6040805193845260208401929092521515908201526060015b60405180910390f35b6100c46100bf3660046105d4565b610333565b6040516100a89493929190610696565b6100f76100e23660046106fc565b60026020526000908152604090205460ff1681565b60405190151581526020016100a8565b60005461011a906001600160a01b031681565b6040516001600160a01b0390911681526020016100a8565b61007a61014036600461071e565b610402565b6000546001600160a01b031633148061016d57503360009081526002602052604090205460ff165b6101be5760405162461bcd60e51b815260206004820152601760248201527f4e6f7420617574686f72697a656420766572696669657200000000000000000060448201526064015b60405180910390fd5b604051806080016040528082815260200184848080601f0160208091040260200160405190810160405280939291908181526020018383808284376000920182905250938552505042602080850191909152600160409485018190526001600160a01b038a168452905250819020905161023b908690869061075a565b908152604051602091819003820190208251815590820151600182019061026290826107f3565b5060408281015160028301556060909201516003909101805460ff1916911515919091179055516001600160a01b038516907f2ee65f8dcfead29917de31f548f64c9a884b4e28cffa78a3faac5157cd9658dd906102c5908690869086906108b3565b60405180910390a250505050565b6001600160a01b038316600090815260016020526040808220905182918291829190610302908890889061075a565b9081526040519081900360200190208054600282015460039092015490955090935060ff1691505093509350939050565b60016020818152600093845260409093208251808401850180519281529085019390940192909220919092528054918101805461036f9061076a565b80601f016020809104026020016040519081016040528092919081815260200182805461039b9061076a565b80156103e85780601f106103bd576101008083540402835291602001916103e8565b820191906000526020600020905b8154815290600101906020018083116103cb57829003601f168201915b50505050600283015460039093015491929160ff16905084565b6000546001600160a01b031633146104495760405162461bcd60e51b815260206004820152600a60248201526927b7363c9037bbb732b960b11b60448201526064016101b5565b6001600160a01b038216600081815260026020908152604091829020805460ff19168515159081179091558251938452908301527fba5f7031ad83095931ee4b5138591db2dc3cfc56178367622fa4b05c2efad231910160405180910390a15050565b80356001600160a01b03811681146104c357600080fd5b919050565b60008083601f8401126104da57600080fd5b50813567ffffffffffffffff8111156104f257600080fd5b60208301915083602082850101111561050a57600080fd5b9250929050565b6000806000806060858703121561052757600080fd5b610530856104ac565b9350602085013567ffffffffffffffff81111561054c57600080fd5b610558878288016104c8565b9598909750949560400135949350505050565b60008060006040848603121561058057600080fd5b610589846104ac565b9250602084013567ffffffffffffffff8111156105a557600080fd5b6105b1868287016104c8565b9497909650939450505050565b634e487b7160e01b600052604160045260246000fd5b600080604083850312156105e757600080fd5b6105f0836104ac565b9150602083013567ffffffffffffffff8082111561060d57600080fd5b818501915085601f83011261062157600080fd5b813581811115610633576106336105be565b604051601f8201601f19908116603f0116810190838211818310171561065b5761065b6105be565b8160405282815288602084870101111561067457600080fd5b8260208601602083013760006020848301015280955050505050509250929050565b84815260006020608081840152855180608085015260005b818110156106ca5787810183015185820160a0015282016106ae565b50600060a0828601015260a0601f19601f83011685010192505050836040830152821515606083015295945050505050565b60006020828403121561070e57600080fd5b610717826104ac565b9392505050565b6000806040838503121561073157600080fd5b61073a836104ac565b91506020830135801515811461074f57600080fd5b809150509250929050565b8183823760009101908152919050565b600181811c9082168061077e57607f821691505b60208210810361079e57634e487b7160e01b600052602260045260246000fd5b50919050565b601f8211156107ee57600081815260208120601f850160051c810160208610156107cb5750805b601f850160051c820191505b818110156107ea578281556001016107d7565b5050505b505050565b815167ffffffffffffffff81111561080d5761080d6105be565b6108218161081b845461076a565b846107a4565b602080601f831160018114610856576000841561083e5750858301515b600019600386901b1c1916600185901b1785556107ea565b600085815260208120601f198616915b8281101561088557888601518255948401946001909101908401610866565b50858210156108a35787850151600019600388901b60f8161c191681555b5050505050600190811b01905550565b604081528260408201528284606083013760006060848301015260006060601f19601f860116830101905082602083015294935050505056fea2646970667358221220e1b4d86229810c9855b6be487cc1b95cca918aaf650879b5f1afee263050a3a864736f6c63430008140033",
  "linkReferences": {},
  "deployedLinkReferences": {}
}